{
  "_format": "hh-sol-artifact-1",
  "contractName": "TokenERC721",
  "sourceName": "contracts/TokenERC721.sol",
  "abi": [
    {
      "anonymous": false,
      "inputs": [
        {
          "indexed": true,
          "internalType": "address",
          "name": "owner",
          "type": "address"
        },
        {
          "indexed": true,
          "internalType": "address",
          "name": "approved",
          "type": "address"
        },
        {
          "indexed": true,
          "internalType": "uint256",
          "name": "tokenId",
          "type": "uint256"
        }
      ],
      "name": "Approval",
      "type": "event"
    },
    {
      "anonymous": false,
      "inputs": [
        {
          "indexed": true,
          "internalType": "address",
          "name": "owner",
          "type": "address"
        },
        {
          "indexed": true,
          "internalType": "address",
          "name": "operator",
          "type": "address"
        },
        {
          "indexed": false,
          "internalType": "bool",
          "name": "approved",
          "type": "bool"
        }
      ],
      "name": "ApprovalForAll",
      "type": "event"
    },
    {
      "anonymous": false,
      "inputs": [
        {
          "indexed": false,
          "internalType": "uint8",
          "name": "version",
          "type": "uint8"
        }
      ],
      "name": "Initialized",
      "type": "event"
    },
    {
      "anonymous": false,
      "inputs": [
        {
          "indexed": true,
          "internalType": "uint256",
          "name": "tokenId",
          "type": "uint256"
        },
        {
          "indexed": true,
          "internalType": "address",
          "name": "to",
          "type": "address"
        }
      ],
      "name": "Minted",
      "type": "event"
    },
    {
      "anonymous": false,
      "inputs": [
        {
          "indexed": true,
          "internalType": "address",
          "name": "from",
          "type": "address"
        },
        {
          "indexed": true,
          "internalType": "address",
          "name": "to",
          "type": "address"
        },
        {
          "indexed": true,
          "internalType": "uint256",
          "name": "tokenId",
          "type": "uint256"
        }
      ],
      "name": "Transfer",
      "type": "event"
    },
    {
      "inputs": [
        {
          "internalType": "address",
          "name": "to",
          "type": "address"
        },
        {
          "internalType": "uint256",
          "name": "tokenId",
          "type": "uint256"
        }
      ],
      "name": "approve",
      "outputs": [],
      "stateMutability": "nonpayable",
      "type": "function"
    },
    {
      "inputs": [
        {
          "internalType": "address",
          "name": "owner",
          "type": "address"
        }
      ],
      "name": "balanceOf",
      "outputs": [
        {
          "internalType": "uint256",
          "name": "",
          "type": "uint256"
        }
      ],
      "stateMutability": "view",
      "type": "function"
    },
    {
      "inputs": [
        {
          "internalType": "uint256",
          "name": "tokenId",
          "type": "uint256"
        }
      ],
      "name": "getApproved",
      "outputs": [
        {
          "internalType": "address",
          "name": "",
          "type": "address"
        }
      ],
      "stateMutability": "view",
      "type": "function"
    },
    {
      "inputs": [],
      "name": "initialize",
      "outputs": [],
      "stateMutability": "nonpayable",
      "type": "function"
    },
    {
      "inputs": [
        {
          "internalType": "address",
          "name": "owner",
          "type": "address"
        },
        {
          "internalType": "address",
          "name": "operator",
          "type": "address"
        }
      ],
      "name": "isApprovedForAll",
      "outputs": [
        {
          "internalType": "bool",
          "name": "",
          "type": "bool"
        }
      ],
      "stateMutability": "view",
      "type": "function"
    },
    {
      "inputs": [
        {
          "internalType": "address",
          "name": "receiver",
          "type": "address"
        }
      ],
      "name": "mint",
      "outputs": [],
      "stateMutability": "nonpayable",
      "type": "function"
    },
    {
      "inputs": [],
      "name": "name",
      "outputs": [
        {
          "internalType": "string",
          "name": "",
          "type": "string"
        }
      ],
      "stateMutability": "view",
      "type": "function"
    },
    {
      "inputs": [
        {
          "internalType": "uint256",
          "name": "tokenId",
          "type": "uint256"
        }
      ],
      "name": "ownerOf",
      "outputs": [
        {
          "internalType": "address",
          "name": "",
          "type": "address"
        }
      ],
      "stateMutability": "view",
      "type": "function"
    },
    {
      "inputs": [
        {
          "internalType": "address",
          "name": "from",
          "type": "address"
        },
        {
          "internalType": "address",
          "name": "to",
          "type": "address"
        },
        {
          "internalType": "uint256",
          "name": "tokenId",
          "type": "uint256"
        }
      ],
      "name": "safeTransferFrom",
      "outputs": [],
      "stateMutability": "nonpayable",
      "type": "function"
    },
    {
      "inputs": [
        {
          "internalType": "address",
          "name": "from",
          "type": "address"
        },
        {
          "internalType": "address",
          "name": "to",
          "type": "address"
        },
        {
          "internalType": "uint256",
          "name": "tokenId",
          "type": "uint256"
        },
        {
          "internalType": "bytes",
          "name": "data",
          "type": "bytes"
        }
      ],
      "name": "safeTransferFrom",
      "outputs": [],
      "stateMutability": "nonpayable",
      "type": "function"
    },
    {
      "inputs": [
        {
          "internalType": "address",
          "name": "operator",
          "type": "address"
        },
        {
          "internalType": "bool",
          "name": "approved",
          "type": "bool"
        }
      ],
      "name": "setApprovalForAll",
      "outputs": [],
      "stateMutability": "nonpayable",
      "type": "function"
    },
    {
      "inputs": [
        {
          "internalType": "bytes4",
          "name": "interfaceId",
          "type": "bytes4"
        }
      ],
      "name": "supportsInterface",
      "outputs": [
        {
          "internalType": "bool",
          "name": "",
          "type": "bool"
        }
      ],
      "stateMutability": "view",
      "type": "function"
    },
    {
      "inputs": [],
      "name": "symbol",
      "outputs": [
        {
          "internalType": "string",
          "name": "",
          "type": "string"
        }
      ],
      "stateMutability": "view",
      "type": "function"
    },
    {
      "inputs": [
        {
          "internalType": "uint256",
          "name": "index",
          "type": "uint256"
        }
      ],
      "name": "tokenByIndex",
      "outputs": [
        {
          "internalType": "uint256",
          "name": "",
          "type": "uint256"
        }
      ],
      "stateMutability": "view",
      "type": "function"
    },
    {
      "inputs": [
        {
          "internalType": "address",
          "name": "owner",
          "type": "address"
        },
        {
          "internalType": "uint256",
          "name": "index",
          "type": "uint256"
        }
      ],
      "name": "tokenOfOwnerByIndex",
      "outputs": [
        {
          "internalType": "uint256",
          "name": "",
          "type": "uint256"
        }
      ],
      "stateMutability": "view",
      "type": "function"
    },
    {
      "inputs": [
        {
          "internalType": "uint256",
          "name": "tokenId",
          "type": "uint256"
        }
      ],
      "name": "tokenURI",
      "outputs": [
        {
          "internalType": "string",
          "name": "",
          "type": "string"
        }
      ],
      "stateMutability": "view",
      "type": "function"
    },
    {
      "inputs": [],
      "name": "totalSupply",
      "outputs": [
        {
          "internalType": "uint256",
          "name": "",
          "type": "uint256"
        }
      ],
      "stateMutability": "view",
      "type": "function"
    },
    {
      "inputs": [
        {
          "internalType": "address",
          "name": "from",
          "type": "address"
        },
        {
          "internalType": "address",
          "name": "to",
          "type": "address"
        },
        {
          "internalType": "uint256",
          "name": "tokenId",
          "type": "uint256"
        }
      ],
      "name": "transferFrom",
      "outputs": [],
      "stateMutability": "nonpayable",
      "type": "function"
    }
  ],
  "bytecode": "0x608060405234801561001057600080fd5b506119d9806100206000396000f3fe608060405234801561001057600080fd5b50600436106101165760003560e01c80636352211e116100a257806395d89b411161007157806395d89b4114610237578063a22cb4651461023f578063b88d4fde14610252578063c87b56dd14610265578063e985e9c51461027857600080fd5b80636352211e146101f65780636a6278421461020957806370a082311461021c5780638129fc1c1461022f57600080fd5b806318160ddd116100e957806318160ddd1461019857806323b872dd146101aa5780632f745c59146101bd57806342842e0e146101d05780634f6ccce7146101e357600080fd5b806301ffc9a71461011b57806306fdde0314610143578063081812fc14610158578063095ea7b314610183575b600080fd5b61012e61012936600461148b565b6102b4565b60405190151581526020015b60405180910390f35b61014b6102df565b60405161013a9190611500565b61016b610166366004611513565b610371565b6040516001600160a01b03909116815260200161013a565b610196610191366004611548565b610398565b005b6099545b60405190815260200161013a565b6101966101b8366004611572565b6104b3565b61019c6101cb366004611548565b6104e4565b6101966101de366004611572565b61057a565b61019c6101f1366004611513565b610595565b61016b610204366004611513565b610628565b6101966102173660046115ae565b610688565b61019c61022a3660046115ae565b6106e7565b61019661076d565b61014b6108bc565b61019661024d3660046115c9565b6108cb565b61019661026036600461161b565b6108da565b61014b610273366004611513565b610912565b61012e6102863660046116f7565b6001600160a01b039182166000908152606a6020908152604080832093909416825291909152205460ff1690565b60006001600160e01b0319821663780e9d6360e01b14806102d957506102d982610986565b92915050565b6060606580546102ee9061172a565b80601f016020809104026020016040519081016040528092919081815260200182805461031a9061172a565b80156103675780601f1061033c57610100808354040283529160200191610367565b820191906000526020600020905b81548152906001019060200180831161034a57829003601f168201915b5050505050905090565b600061037c826109d6565b506000908152606960205260409020546001600160a01b031690565b60006103a382610628565b9050806001600160a01b0316836001600160a01b031614156104165760405162461bcd60e51b815260206004820152602160248201527f4552433732313a20617070726f76616c20746f2063757272656e74206f776e656044820152603960f91b60648201526084015b60405180910390fd5b336001600160a01b038216148061043257506104328133610286565b6104a45760405162461bcd60e51b815260206004820152603e60248201527f4552433732313a20617070726f76652063616c6c6572206973206e6f7420746f60448201527f6b656e206f776e6572206e6f7220617070726f76656420666f7220616c6c0000606482015260840161040d565b6104ae8383610a35565b505050565b6104bd3382610aa3565b6104d95760405162461bcd60e51b815260040161040d90611765565b6104ae838383610b22565b60006104ef836106e7565b82106105515760405162461bcd60e51b815260206004820152602b60248201527f455243373231456e756d657261626c653a206f776e657220696e646578206f7560448201526a74206f6620626f756e647360a81b606482015260840161040d565b506001600160a01b03919091166000908152609760209081526040808320938352929052205490565b6104ae838383604051806020016040528060008152506108da565b60006105a060995490565b82106106035760405162461bcd60e51b815260206004820152602c60248201527f455243373231456e756d657261626c653a20676c6f62616c20696e646578206f60448201526b7574206f6620626f756e647360a01b606482015260840161040d565b60998281548110610616576106166117b3565b90600052602060002001549050919050565b6000818152606760205260408120546001600160a01b0316806102d95760405162461bcd60e51b8152602060048201526018602482015277115490cdcc8c4e881a5b9d985b1a59081d1bdad95b88125160421b604482015260640161040d565b61069660c980546001019055565b60006106a160c95490565b90506106ad8282610cc9565b6040516001600160a01b0383169082907fb9203d657e9c0ec8274c818292ab0f58b04e1970050716891770eb1bab5d655e90600090a35050565b60006001600160a01b0382166107515760405162461bcd60e51b815260206004820152602960248201527f4552433732313a2061646472657373207a65726f206973206e6f7420612076616044820152683634b21037bbb732b960b91b606482015260840161040d565b506001600160a01b031660009081526068602052604090205490565b600054610100900460ff161580801561078d5750600054600160ff909116105b806107a75750303b1580156107a7575060005460ff166001145b61080a5760405162461bcd60e51b815260206004820152602e60248201527f496e697469616c697a61626c653a20636f6e747261637420697320616c72656160448201526d191e481a5b9a5d1a585b1a5e995960921b606482015260840161040d565b6000805460ff19166001179055801561082d576000805461ff0019166101001790555b6108736040518060400160405280600a815260200169151bdad95b8815195cdd60b21b81525060405180604001604052806002815260200161151560f21b815250610e17565b80156108b9576000805461ff0019169055604051600181527f7f26b83ff96e1f2b6a682f133852f6798a09c465da95921460cefb38474024989060200160405180910390a15b50565b6060606680546102ee9061172a565b6108d6338383610e48565b5050565b6108e43383610aa3565b6109005760405162461bcd60e51b815260040161040d90611765565b61090c84848484610f17565b50505050565b606061091d826109d6565b600061093460408051602081019091526000815290565b90506000815111610954576040518060200160405280600081525061097f565b8061095e84610f4a565b60405160200161096f9291906117c9565b6040516020818303038152906040525b9392505050565b60006001600160e01b031982166380ac58cd60e01b14806109b757506001600160e01b03198216635b5e139f60e01b145b806102d957506301ffc9a760e01b6001600160e01b03198316146102d9565b6000818152606760205260409020546001600160a01b03166108b95760405162461bcd60e51b8152602060048201526018602482015277115490cdcc8c4e881a5b9d985b1a59081d1bdad95b88125160421b604482015260640161040d565b600081815260696020526040902080546001600160a01b0319166001600160a01b0384169081179091558190610a6a82610628565b6001600160a01b03167f8c5be1e5ebec7d5bd14f71427d1e84f3dd0314c0f7b2291e5b200ac8c7c3b92560405160405180910390a45050565b600080610aaf83610628565b9050806001600160a01b0316846001600160a01b03161480610af657506001600160a01b038082166000908152606a602090815260408083209388168352929052205460ff165b80610b1a5750836001600160a01b0316610b0f84610371565b6001600160a01b0316145b949350505050565b826001600160a01b0316610b3582610628565b6001600160a01b031614610b995760405162461bcd60e51b815260206004820152602560248201527f4552433732313a207472616e736665722066726f6d20696e636f72726563742060448201526437bbb732b960d91b606482015260840161040d565b6001600160a01b038216610bfb5760405162461bcd60e51b8152602060048201526024808201527f4552433732313a207472616e7366657220746f20746865207a65726f206164646044820152637265737360e01b606482015260840161040d565b610c06838383611048565b610c11600082610a35565b6001600160a01b0383166000908152606860205260408120805460019290610c3a90849061180e565b90915550506001600160a01b0382166000908152606860205260408120805460019290610c68908490611825565b909155505060008181526067602052604080822080546001600160a01b0319166001600160a01b0386811691821790925591518493918716917fddf252ad1be2c89b69c2b068fc378daa952ba7f163c4a11628f55a4df523b3ef91a4505050565b6001600160a01b038216610d1f5760405162461bcd60e51b815260206004820181905260248201527f4552433732313a206d696e7420746f20746865207a65726f2061646472657373604482015260640161040d565b6000818152606760205260409020546001600160a01b031615610d845760405162461bcd60e51b815260206004820152601c60248201527f4552433732313a20746f6b656e20616c7265616479206d696e74656400000000604482015260640161040d565b610d9060008383611048565b6001600160a01b0382166000908152606860205260408120805460019290610db9908490611825565b909155505060008181526067602052604080822080546001600160a01b0319166001600160a01b03861690811790915590518392907fddf252ad1be2c89b69c2b068fc378daa952ba7f163c4a11628f55a4df523b3ef908290a45050565b600054610100900460ff16610e3e5760405162461bcd60e51b815260040161040d9061183d565b6108d68282611100565b816001600160a01b0316836001600160a01b03161415610eaa5760405162461bcd60e51b815260206004820152601960248201527f4552433732313a20617070726f766520746f2063616c6c657200000000000000604482015260640161040d565b6001600160a01b038381166000818152606a6020908152604080832094871680845294825291829020805460ff191686151590811790915591519182527f17307eab39ab6107e8899845ad3d59bd9653f200f220920489ca2b5937696c31910160405180910390a3505050565b610f22848484610b22565b610f2e8484848461114e565b61090c5760405162461bcd60e51b815260040161040d90611888565b606081610f6e5750506040805180820190915260018152600360fc1b602082015290565b8160005b8115610f985780610f82816118da565b9150610f919050600a8361190b565b9150610f72565b60008167ffffffffffffffff811115610fb357610fb3611605565b6040519080825280601f01601f191660200182016040528015610fdd576020820181803683370190505b5090505b8415610b1a57610ff260018361180e565b9150610fff600a8661191f565b61100a906030611825565b60f81b81838151811061101f5761101f6117b3565b60200101906001600160f81b031916908160001a905350611041600a8661190b565b9450610fe1565b6001600160a01b0383166110a35761109e81609980546000838152609a60205260408120829055600182018355919091527f72a152ddfb8e864297c917af52ea6c1c68aead0fee1a62673fcc7e0c94979d000155565b6110c6565b816001600160a01b0316836001600160a01b0316146110c6576110c6838261124c565b6001600160a01b0382166110dd576104ae816112e9565b826001600160a01b0316826001600160a01b0316146104ae576104ae8282611398565b600054610100900460ff166111275760405162461bcd60e51b815260040161040d9061183d565b815161113a9060659060208501906113dc565b5080516104ae9060669060208401906113dc565b60006001600160a01b0384163b1561124157604051630a85bd0160e11b81526001600160a01b0385169063150b7a0290611192903390899088908890600401611933565b6020604051808303816000875af19250505080156111cd575060408051601f3d908101601f191682019092526111ca91810190611970565b60015b611227573d8080156111fb576040519150601f19603f3d011682016040523d82523d6000602084013e611200565b606091505b50805161121f5760405162461bcd60e51b815260040161040d90611888565b805181602001fd5b6001600160e01b031916630a85bd0160e11b149050610b1a565b506001949350505050565b60006001611259846106e7565b611263919061180e565b6000838152609860205260409020549091508082146112b6576001600160a01b03841660009081526097602090815260408083208584528252808320548484528184208190558352609890915290208190555b5060009182526098602090815260408084208490556001600160a01b039094168352609781528383209183525290812055565b6099546000906112fb9060019061180e565b6000838152609a602052604081205460998054939450909284908110611323576113236117b3565b906000526020600020015490508060998381548110611344576113446117b3565b6000918252602080832090910192909255828152609a9091526040808220849055858252812055609980548061137c5761137c61198d565b6001900381819060005260206000200160009055905550505050565b60006113a3836106e7565b6001600160a01b039093166000908152609760209081526040808320868452825280832085905593825260989052919091209190915550565b8280546113e89061172a565b90600052602060002090601f01602090048101928261140a5760008555611450565b82601f1061142357805160ff1916838001178555611450565b82800160010185558215611450579182015b82811115611450578251825591602001919060010190611435565b5061145c929150611460565b5090565b5b8082111561145c5760008155600101611461565b6001600160e01b0319811681146108b957600080fd5b60006020828403121561149d57600080fd5b813561097f81611475565b60005b838110156114c35781810151838201526020016114ab565b8381111561090c5750506000910152565b600081518084526114ec8160208601602086016114a8565b601f01601f19169290920160200192915050565b60208152600061097f60208301846114d4565b60006020828403121561152557600080fd5b5035919050565b80356001600160a01b038116811461154357600080fd5b919050565b6000806040838503121561155b57600080fd5b6115648361152c565b946020939093013593505050565b60008060006060848603121561158757600080fd5b6115908461152c565b925061159e6020850161152c565b9150604084013590509250925092565b6000602082840312156115c057600080fd5b61097f8261152c565b600080604083850312156115dc57600080fd5b6115e58361152c565b9150602083013580151581146115fa57600080fd5b809150509250929050565b634e487b7160e01b600052604160045260246000fd5b6000806000806080858703121561163157600080fd5b61163a8561152c565b93506116486020860161152c565b925060408501359150606085013567ffffffffffffffff8082111561166c57600080fd5b818701915087601f83011261168057600080fd5b81358181111561169257611692611605565b604051601f8201601f19908116603f011681019083821181831017156116ba576116ba611605565b816040528281528a60208487010111156116d357600080fd5b82602086016020830137600060208483010152809550505050505092959194509250565b6000806040838503121561170a57600080fd5b6117138361152c565b91506117216020840161152c565b90509250929050565b600181811c9082168061173e57607f821691505b6020821081141561175f57634e487b7160e01b600052602260045260246000fd5b50919050565b6020808252602e908201527f4552433732313a2063616c6c6572206973206e6f7420746f6b656e206f776e6560408201526d1c881b9bdc88185c1c1c9bdd995960921b606082015260800190565b634e487b7160e01b600052603260045260246000fd5b600083516117db8184602088016114a8565b8351908301906117ef8183602088016114a8565b01949350505050565b634e487b7160e01b600052601160045260246000fd5b600082821015611820576118206117f8565b500390565b60008219821115611838576118386117f8565b500190565b6020808252602b908201527f496e697469616c697a61626c653a20636f6e7472616374206973206e6f74206960408201526a6e697469616c697a696e6760a81b606082015260800190565b60208082526032908201527f4552433732313a207472616e7366657220746f206e6f6e20455243373231526560408201527131b2b4bb32b91034b6b83632b6b2b73a32b960711b606082015260800190565b60006000198214156118ee576118ee6117f8565b5060010190565b634e487b7160e01b600052601260045260246000fd5b60008261191a5761191a6118f5565b500490565b60008261192e5761192e6118f5565b500690565b6001600160a01b0385811682528416602082015260408101839052608060608201819052600090611966908301846114d4565b9695505050505050565b60006020828403121561198257600080fd5b815161097f81611475565b634e487b7160e01b600052603160045260246000fdfea26469706673582212204588f9e9f5643a573f510bb8335610d52362f5887e8c4c58ea35d25f482ea1a264736f6c634300080c0033",
  "linkReferences": {},
  "deployedLinkReferences": {}
}